:020000021000EC
:10B0000000400020B1B50100F1B50100F3B5010029
:10B010000000000000000000000000000000000030
:10B02000000000000000000000000000F5B5010075
:10B030000000000000000000F7B50100F9B50100B4
:10B04000FBB50100FBB50100FBB50100FBB501003C
:10B05000FBB5010000000000FBB50100FBB50100DD
:10B06000FBB50100FBB50100FBB50100FBB501001C
:10B07000FBB50100FBB50100FBB50100FBB501000C
:10B08000FBB50100FBB50100FBB50100FBB50100FC
:10B09000FBB50100FBB50100FBB50100FBB50100EC
:10B0A000FBB50100FBB5010000000000000000003E
:10B0B0000000000000000000000000000000000090
:10B0C000054B0648033310B51B1A062B03D9044B56
:10B0D000002B00D0984710BDC8240020C8240020B1
:10B0E000000000000648074910B5091A8910CB0F67
:10B0F0005918491003D0044B002B00D0984710BDBD
:10B10000C8240020C82400200000000010B5074C0F
:10B110002378002B09D1FFF7D3FF054B002B02D07A
:10B12000044800E000BF0123237010BDC8240020A4
:10B1300000000000E0BC0100094B10B5002B03D05B
:10B140000849094800E000BF08480368002B02D105
:10B15000FFF7C8FF10BD064B002BF9D09847F7E763
:10B1600000000000CC240020E0BC0100C42400202A
:10B1700000000000144B002B00D1124B9D464022D2
:10B1800092029A1A924600218B460F461148124AA3
:10B19000121A00F047FC0D4B002B00D098470C4BC7
:10B1A000002B00D098470020002104000D000B4820
:10B1B00000F0E2FB00F012FC2000290000F010F883
:10B1C00000F0E2FB0000080000400020000000004A
:10B1D00000000000C8240020F8240020A9B90100C4
:10B1E00080B582B000AF00F01BF80B4B180000F0E8
:10B1F00025F900237B6000F07FF903007B6000F0FD
:10B20000ABF97A68054B1100180000F017F900231C
:10B210001800BD4602B080BDB8BC0100BCBC010036
:10B2200080B500AFA023DA05EC23DB000121D1506B
:10B23000A023DB05124A002199501249A123DB000B
:10B2400001225242CA500F49A223DB00012252427E
:10B25000CA500C4A0C4B1821D1500A4A0B4B1921E9
:10B26000D150084A0A4B0B49D150064AA023DB00B3
:10B270000421D150034B01221A60C046BD4680BD57
:10B2800064070000002000400C05000014050000C9
:10B29000240500000050270080B582B000AF0200F6
:10B2A000FB1D1A700D4B01229A600C49FB1D1B7887
:10B2B0000B4A8B50C046094A8E235B00D358002BA3
:10B2C000F9D0064A8E235B000021D150034B0122A6
:10B2D000DA60C046BD4602B080BDC04600200040D6
:10B2E0001C05000080B586B000AF78607B68002B3D
:10B2F00003D13020FFF7D0FF5AE000237B61002309
:10B300003B610023FB607B68002B1FDA0123FB609D
:10B310007B685B427B6019E03A6913009B009B18D5
:10B320005B003B617B680A21180000F01FFB0B00EB
:10B330001A003B699B183B617B680A21180000F0EA
:10B340002FFA03007B607B6901337B617B68002BF4
:10B35000E2D1FB68002B1ED02D20FFF79DFF1AE0E5
:10B360003B690A21180000F001FB0B00DAB20B2345
:10B37000FB1830321A700B23FB181B781800FFF7EC
:10B380008BFF3B690A21180000F00AFA03003B61B9
:10B390007B69013B7B613B69002BE1D105E03020FB
:10B3A000FFF77AFF7B69013B7B617B69002BF6D15C
:10B3B000BD4606B080BD80B584B000AF7860002384
:10B3C000FB600EE0FA6813009B009B185B00FB60BB
:10B3D0007B681B78303BFA68D318FB607B680133CD
:10B3E0007B607B681B78642BECD1FB681800BD4642
:10B3F00004B080BD80B584B000AF78607B68002B5E
:10B4000001D1012316E00023FB607B68002B0DDADD
:10B41000FB680133FB6009E0FB680133FB607B687C
:10B420000A21180000F0BCF903007B607B68002B48
:10B43000F2D1FB681800BD4604B080BD0FB480B5E2
:10B4400086B000AF2423FB187B603B6A3B6137E08A
:10B450003B691B78252B05D03B691B781800FFF74B
:10B460001BFF2AE07B681A1D7A601B68FB603B6942
:10B4700001333B613B691800FFF79DFF0300BB6090
:10B48000FB681800FFF7B6FF03007B6102E03B6931
:10B4900001333B613B691B78642BF8D105E0202028
:10B4A000FFF7FAFE7B6901337B617A69BB689A42D8
:10B4B000F5DBFB681800FFF715FF3B6901333B61C3
:10B4C0003B691B78002BC3D1C046BD4606B080BC8B
:10B4D00008BC04B01847000010DF7047181CC046B5
:10B4E00072DF7047181CC04673DF7047181CC046D7
:10B4F00060DF7047181CC04680B582B000AF0023E3
:10B500007B6000200021FFF7E7FF031C7B607B6866
:10B51000002B01D07B6816E00D4B181C0021142273
:10B5200000F080FA0B4B3B60094B01221A72084B6A
:10B5300001221A80064A3B1C101C191CFFF7D8FF79
:10B54000031C7B607B68181CBD4602B080BDC046F2
:10B55000E42400207820002080B588B000AF0023CC
:10B56000FB611B23FB1810221A700F4A1B23FB18C8
:10B570001B78101C191C00220023FFF7B1FF3B1C95
:10B58000181C0021182200F04DFA3B1C00221A70F2
:10B590003B1C064A1A823B1C181CFFF7A5FFFB69DF
:10B5A000181CBD4608B080BD782000205B08000054
:10B5B00003210A4802680A430260094802680A43F4
:10B5C00002600849084A094B9B1A03DD043BC8582E
:10B5D000D050FBDC00F012F8FFF7CCFD2405004052
:10B5E00054050040ECBC010078200020C824002055
:10B5F000FEE7FEE7FEE7FEE7FEE7FEE780B500AF09
:10B6000000F034F8031E06D0124B134A1A60134B95
:10B61000802212021A6000F069F8031E05D0802310
:10B62000DA05C123DB000121D15000F085F8031EAB
:10B630000ED00B4B1B68012B07D0094B094A1A602F
:10B64000C046074B1B68012BFBD1074BC0221A6079
:10B65000BD4680BD04050040DFFF07C0186C0040F8
:10B6600000EC06407593000014EC064080B500AF76
:10B670001A4B1B68FF221340012B2AD1184B1B6861
:10B680000F22134025D1174B1B68F022134006D11F
:10B69000154B1B68F022134001D101231AE0114B16
:10B6A0001B68F0221340102B06D10F4B1B68F022B1
:10B6B000134001D101230DE00A4B1B68F022134017
:10B6C000302B06D1084B1B68F022134001D1012317
:10B6D00000E00023181CBD4680BDC046E00F00F00E
:10B6E000E40F00F0E80F00F0EC0F00F080B500AFC1
:10B6F0000D4B1B68FF221340012B11D10B4B1B6814
:10B700000F2213400CD10A4B1B68F0221340402B30
:10B7100006D1084B1B68F022134001D1012300E041
:10B720000023181CBD4680BDE00F00F0E40F00F0C0
:10B73000E80F00F0EC0F00F080B500AF144B1B6871
:10B74000FF221340012B1ED1124B1B680F22134006
:10B7500019D1114B1B68F0221340A02B06D10F4BBF
:10B760001B68F022134001D101230DE00A4B1B6836
:10B77000F0221340D02B06D1084B1B68F022134057
:10B7800001D1012300E00023181CBD4680BDC04646
:10B79000E00F00F0E40F00F0E80F00F0EC0F00F015
:10B7A00003460B437FD4002243088B4274D3030922
:10B7B0008B425FD3030A8B4244D3030B8B4228D3C3
:10B7C000030C8B420DD3FF22090212BA030C8B42E9
:10B7D00002D31212090265D0030B8B4219D300E089
:10B7E000090AC30B8B4201D3CB03C01A5241830B0E
:10B7F0008B4201D38B03C01A5241430B8B4201D3BE
:10B800004B03C01A5241030B8B4201D30B03C01AE6
:10B810005241C30A8B4201D3CB02C01A5241830A60
:10B820008B4201D38B02C01A5241430A8B4201D38F
:10B830004B02C01A5241030A8B4201D30B02C01AB9
:10B840005241CDD2C3098B4201D3CB01C01A524120
:10B8500083098B4201D38B01C01A524143098B42A9
:10B8600001D34B01C01A524103098B4201D30B0192
:10B87000C01A5241C3088B4201D3CB00C01A5241B7
:10B8800083088B4201D38B00C01A524143088B427C
:10B8900001D34B00C01A5241411A00D20146524115
:10B8A000104670475DE0CA0F00D04942031000D334
:10B8B0004042534000229C4603098B422DD3030A89
:10B8C0008B4212D3FC22890112BA030A8B420CD399
:10B8D000890192118B4208D3890192118B4204D3C2
:10B8E00089013AD0921100E08909C3098B4201D342
:10B8F000CB01C01A524183098B4201D38B01C01A7C
:10B90000524143098B4201D34B01C01A52410309F2
:10B910008B4201D30B01C01A5241C3088B4201D3A1
:10B92000CB00C01A524183088B4201D38B00C01A4E
:10B930005241D9D243088B4201D34B00C01A524125
:10B94000411A00D20146634652415B10104601D3B2
:10B950004042002B00D54942704763465B1000D33C
:10B96000404201B5002000F005F802BD0029F8D0E2
:10B9700016E770477047C04610B50100002300224B
:10B98000002000F099F810BD10B50021040000F06F
:10B99000FDF8044B1868C36B002B00D098472000BB
:10B9A00000F07CF9D8BC010070B5094B094CE41AD1
:10B9B000A41009D0084AA518AD00ED182B68013C69
:10B9C0009847043D002CF9D100F070F970BDC046D5
:10B9D000C0240020C4240020FFFFFF3F70B50D4E9F
:10B9E0000D4D0024AD1BAD1005D0A300F35801345C
:10B9F0009847A542F9D100F053F9084E084D0024AC
:10BA0000AD1BAD1005D0A300F35801349847A542F3
:10BA1000F9D170BDB8240020B8240020B82400203B
:10BA2000C0240020F0B5830743D0541E002A3FD025
:10BA3000CEB20200032502E01A00013C38D3531CA9
:10BA400016702B42F8D1032C2AD9FF220A40150286
:10BA500015432A0415430F2C14D927001A00103F50
:10BA60003E09013636019E19156055609560D56016
:10BA700010329642F8D10F2297431037DB19144049
:10BA8000032C0DD91A00271FBE080136B6009E19D7
:10BA900020C2B242FCD1032297430437DB19144081
:10BAA000002C05D0C9B21C19197001339C42FBD17E
:10BAB000F0BD14000300C6E7F8B5DE469B46314BE7
:10BAC00045461C68A4234E4657465B00E0B505007A
:10BAD000E0580E00904600284BD043681F2B0DDC29
:10BAE0005C1C002D21D102339B0044601E500020BD
:10BAF0003CBC90469946A246AB46F8BD224B002B73
:10BB00003CD0C820400000E000BF002836D0A4226E
:10BB100000235200A15843600160A050403283507E
:10BB2000043283500124002DDDD09A0091468144D7
:10BB3000424688214F467A50C422520090468044A3
:10BB400042468739994012688A460A4394464246DB
:10BB500061461160842249465F4652008F50022D93
:10BB6000C1D1020055468D32FF3211680D43156078
:10BB7000B9E720004D30FF30E050AEE701204042F1
:10BB8000B6E7C046D8BC010000000000F0B557463B
:10BB9000DE464E464546E0B50F00384B85B01B6883
:10BBA000019002934933FF330393A422029B520076
:10BBB0009E58002E4ED0039B9946C4235B009846A6
:10BBC00004339A467468B044A5007519B244013C28
:10BBD00008D52DE06B1DFF331B689F4204D0043D48
:10BBE000013C25D3002FF5D173686A68013BA3425D
:10BBF00039D000236B60002AF1D0736841469B4620
:10BC00000123A340096819422BD051460968194203
:10BC10002BD12B00843319680198904773685B45DA
:10BC2000C3D14B461B68B342BFD1043D013CD9D2BE
:10BC3000134B002B0ED07368002B1BD13368002BE5
:10BC400008D04A463000136000E000BF4B461E6833
:10BC5000002EB2D105B03CBC90469946A246AB46F8
:10BC6000F0BD9047DAE77460C5E72B0084331868AD
:10BC70009047D3E7B1463668EAE7C046D8BC010032
:10BC800000000000034B10B5002B02D00248FFF764
:10BC900073FE10BD00000000A9B90100FEE7C04618
:10BCA000F8B5C046F8BC08BC9E467047F8B5C0461B
:10BCB000F8BC08BC9E4670474F4B0000424C4520E4
:10BCC000456E61626C65206572726F7220636F648D
:10BCD000653A2025640A0D009020002043000000F2
:04BCE0000000000060
:08BCE40090F4FF7F0100000055
:10BCEC000F09756C76656E2075742061762045554C
:10BCFC009020002000000000000000007C230020A9
:10BD0C00E42300204C240020000000000000000070
:10BD1C000000000000000000000000000000000017
:10BD2C00000000000000000000000000DCBC01006E
:10BD3C0000000000000000000000000000000000F7
:10BD4C0000000000000000000000000000000000E7
:10BD5C0000000000000000000000000000000000D7
:10BD6C0000000000000000000000000000000000C7
:10BD7C0000000000000000000000000000000000B7
:10BD8C0000000000000000000000000000000000A7
:10BD9C000000000000000000000000000000000097
:10BDAC0001000000000000000E33CDAB34126DE634
:10BDBC00ECDE05000B00000000000000000000009D
:10BDCC000000000000000000000000000000000067
:10BDDC000000000000000000000000000000000057
:10BDEC000000000000000000000000000000000047
:10BDFC000000000000000000000000000000000037
:10C12C0085BC010039B101000DB101000000000017
:040000031000B5B183
:00000001FF
