:100000000040002049080000890800008B0800001B
:1000100000000000000000000000000000000000E0
:100020000000000000000000000000008D0800003B
:1000300000000000000000008F0800009108000090
:100040009308000093080000930800009308000044
:1000500093080000000000009308000093080000CF
:100060009308000093080000930800009308000024
:100070009308000093080000930800009308000014
:100080009308000093080000930800009308000004
:1000900093080000930800009308000093080000F4
:1000A000930800009308000000000000000000001A
:1000B0000000000000000000000000000000000040
:1000C00010B5064C2378002B07D1054B002B02D02E
:1000D000044800E000BF0123237010BD4C0800203D
:1000E0000000000074140000084B10B5002B03D072
:1000F0000749084800E000BF07480368002B00D10B
:1001000010BD064B002BFBD09847F9E7000000001C
:10011000500800207414000048080020000000006F
:10012000164B002B00D1144B9D46402292029A1A86
:10013000924600218B460F461348144A121A00F0CB
:100140009BFE0F4B002B00D098470E4B002B00D08E
:1001500098470020002104000D000D48002802D01F
:100160000C4800F06FFF00F0A5FB2000290000F014
:1001700013F800F08FFBC04600000800004000208C
:1001800000000000000000004C080020A40800202F
:10019000451000005510000080B582B000AF00F09F
:1001A00099F800F039F800F00BF9082000F0A6FBF0
:1001B00003003B600121002000F028F93B68012288
:1001C0000D211D2000F0C2F80221002000F01EF9D0
:1001D0003B681B785A2B04D10121012000F016F94D
:1001E00007E001235A4201235B421100180000F08E
:1001F0000DF9084B7B607B68013B7B607B68002BC3
:10020000F9D13B68180000F083FB00231800BD46BD
:1002100002B080BD1027000080B500AFA023DA0532
:10022000EC23DB000121D150A023DB05124A002181
:100230009950124A124B1349D150104A124B1821AF
:10024000D1500E4A114B1921D1500C49A223DB0089
:1002500001225242CA500949A123DB000122524225
:10026000CA50064AA023DB000421D150034B0122CF
:100270001A60C046BD4680BD6407000000200040F3
:1002800024050000005027000C05000014050000A4
:1002900080B582B000AF0200FB1D1A700B4B01222B
:1002A0009A600A49FB1D1B78094A8B50C046074AD1
:1002B0008E235B00D358002BF9D0044A8E235B00B9
:1002C0000021D150C046BD4602B080BD0020004094
:1002D0001C05000080B500AFA023DA05E023DB0099
:1002E0001649D150A023DA05EF23DB001349D15082
:1002F000134A84235B000021D150114A8E235B00F6
:100300000021D1500E4A92235B000021D1500C4AAB
:10031000A123DB000021D150094A0A4B1E21D150F4
:100320000749094ACC235B048B50054AA023DB0014
:100330000521D150C046BD4680BDC0460C06000018
:10034000003000400C0500002405000080B584B09A
:1003500000AFBA607B600F23FB18021C1A700E23DB
:10036000FB180A1C1A7014490F23FB181A78B123C2
:10037000DB00CA50104B01229A600F4A8E235B00AB
:100380000021D1500C490E23FB181B780B4A8B50CF
:100390007520FFF77DFF02E06B20FFF779FF064A2B
:1003A0008E235B00D358002BF6D06920FFF770FF37
:1003B000C046BD4604B080BD003000401C050000B2
:1003C00080B582B000AF04237B6015E0A023DA057E
:1003D00001217B6899400B001900A323DB00D15059
:1003E000A023DB0501217A6891400A001100064A2A
:1003F00099507B6801337B607B680F2BE6DDC0463C
:10040000BD4602B080BDC0460C05000080B586B078
:1004100000AF7860396000F02FF80823FB187A6885
:100420001A600823FB183A685A600823FB18180062
:1004300000F038F80823FB181B687B610823FB18C1
:100440005B683B61A023DB0501217A6991400A00CA
:100450001100084A9950A023DA0501213B6999400F
:100460000B001900A123DB00D150C046BD4606B0E9
:1004700080BDC0460C05000080B500AFA023DB05A1
:100480000649E02212025A50A023DA05A123DB001C
:100490000349D150C046BD4680BDC0460C05000092
:1004A000F01F000080B586B000AF78607B681B68E5
:1004B0007B617B685B683B617B69022B02DD022309
:1004C0007B6105E07B69023302DA02235B427B61D8
:1004D0003B69022B02DD02233B6105E03B690233ED
:1004E00002DA02235B423B613B690233042B00D9F1
:1004F000BEE09A00644BD3181B689F467B690233A9
:10050000042B00D9ABE09A00604BD3181B689F46C0
:100510000623FB600F23BB6013E00A23FB600E235E
:10052000BB600EE00423FB600F23BB6009E00923DE
:10053000FB600E23BB6004E00523FB600F23BB6060
:10054000C0468CE07B690233042B00D989E09A0015
:100550004F4BD3181B689F460B23FB600D23BB60DA
:1005600013E00A23FB600D23BB600EE00923FB6050
:100570000D23BB6009E00823FB600D23BB6004E092
:100580000723FB600D23BB60C0466AE07B69023332
:10059000042B68D89A003F4BD3181B689F4605234D
:1005A000FB600E23BB6013E00C23FB600D23BB60DC
:1005B0000EE00623FB600E23BB6009E00C23FB600A
:1005C0000F23BB6004E00423FB600E23BB60C04626
:1005D00049E07B690233042B47D89A002E4BD3188D
:1005E0001B689F460723FB600F23BB6013E00823B3
:1005F000FB600F23BB600EE00923FB600F23BB6091
:1006000009E00A23FB600F23BB6004E00B23FB60BF
:100610000F23BB60C04628E07B690233042B26D839
:100620009A001E4BD3181B689F460423FB600D23C2
:10063000BB6013E00723FB600E23BB600EE00523C5
:10064000FB600D23BB6009E00823FB600E23BB6049
:1006500004E00623FB600D23BB60C04607E0C046F4
:1006600006E0C04604E0C04602E0C04600E0C046E6
:100670007B68FA681A607B680433BA681A60C046FF
:10068000BD4606B080BDC046F81300000C14000043
:100690002014000034140000481400005C14000012
:1006A00080B500AF00F036F8031E06D0134B144A95
:1006B0001A60144B802212021A6000F06BF8031EBD
:1006C00005D08023DA05C123DB000121D15000F0E1
:1006D00087F8031E0ED00C4B1B68012B07D00A4B6A
:1006E0000A4A1A60C046084B1B68012BFBD1084B15
:1006F000C0221A60C046BD4680BDC0460405004009
:10070000DFFF07C0186C004000EC06407593000046
:1007100014EC064080B500AF1A4B1B68FF22134053
:10072000012B2AD1184B1B680F22134025D1174BE0
:100730001B68F022134006D1154B1B68F0221340B2
:1007400001D101231AE0114B1B68F0221340102B3A
:1007500006D10F4B1B68F022134001D101230DE09D
:100760000A4B1B68F0221340302B06D1084B1B6844
:10077000F022134001D1012300E000231800BD4600
:1007800080BDC046E00F00F0E40F00F0E80F00F07D
:10079000EC0F00F080B500AF0D4B1B68FF2213403B
:1007A000012B11D10B4B1B680F2213400CD10A4BAC
:1007B0001B68F0221340402B06D1084B1B68F02227
:1007C000134001D1012300E000231800BD4680BD85
:1007D000E00F00F0E40F00F0E80F00F0EC0F00F085
:1007E00080B500AF144B1B68FF221340012B1ED1B4
:1007F000124B1B680F22134019D1114B1B68F022BA
:100800001340A02B06D10F4B1B68F022134001D1DF
:1008100001230DE00A4B1B68F0221340D02B06D1B8
:10082000084B1B68F022134001D1012300E0002394
:100830001800BD4680BDC046E00F00F0E40F00F098
:10084000E80F00F0EC0F00F003210A4802680A43A9
:100850000260094802680A4302600849084A094BD5
:100860009B1A03DD043BC858D050FBDCFFF718FF90
:10087000FFF756FC2405004054050040801400009A
:10088000000000204C080020FEE7FEE7FEE7FEE740
:10089000FEE7FEE710B50021040000F055FB044B15
:1008A0001868C36B002B00D09847200000F096FD1D
:1008B0007014000070B50D4E0D4D0024AD1BAD1031
:1008C00005D0A300F35801349847A542F9D100F0B0
:1008D00087FD084E084D0024AD1BAD1005D0A300C8
:1008E000F35801349847A542F9D170BD3C08002067
:1008F0003C0800203C0800204408002010B5034BB1
:100900000100186800F00EF810BDC0462804002051
:1009100010B5034B0100186800F006FC10BDC0467E
:1009200028040020F0B55F464D4656464446F0B4D4
:100930000D000B3583B00700162D00D8A8E0072363
:100940009D4300D5CEE0A94200D9CBE000F0DAFA11
:10095000F823FF339D4200D884E26B0A00D1C5E042
:10096000042B00D96CE13823A9099C460133984631
:10097000884443468C445900C94E8900711808398F
:10098000CC68A14217D0032362689A431300521B1C
:100990000F2A00DDB0E00320002A09DB8DE0636848
:1009A00083435A1B0F2A00DDA6E0002A00DB84E007
:1009B000E468A142F3D1434600933200346908321F
:1009C000944200D18FE10323616899430B00481BD7
:1009D0000F2800DD76E172613261002871DAB14AD8
:1009E000914200D934E10123C80882109340726813
:1009F0001A43C3009B1998687260E360A0609C6012
:100A00001300C460012000998A109040984200D9D8
:100A100075E003420CD1032291430A1D400000926D
:100A2000034205D1009A4000043200920342F9D0FB
:100A300003239846009AD3009946B144CC46924687
:100A40006346DC68A44507D14FE1002A00DB5FE183
:100A5000E468A44500D148E14246636893435A1BC9
:100A60000F2AF2DD012163190D436560E068A56876
:100A70000836E86011438560F360B3603800DE60DB
:100A80009E6059609A5000F03FFA2000083022E042
:100A9000102927D8380000F035FA10250623022146
:100AA0007F4E9B00F3181A005C68083A944200D10C
:100AB00027E1032362689A431300E268A168CA60D1
:100AC00091600122E318596838000A435A6000F027
:100AD0001BFA2000083003B03CBC90469946A24661
:100AE000AB46F0BD0C2300203B60F4E74023984662
:100AF000013B80219C463FE7634600935DE703236B
:100B0000B46862689A439046AA4203D3521B0F2AE4
:100B100000DD87E023004344634A0193634B93461F
:100B20001B681268EB18013200D157E1604A944605
:100B300063441B0B1B0300930099380000F0E6F997
:100B400003008146013361D0019B834200D9FDE05F
:100B5000584B009A9A461B689C46534662441A605A
:100B6000019B11004B4500D143E15B461B680133FB
:100B700000D14FE14B46019A9B1A59185346196010
:100B800007234A46134000D117E1082189464A4904
:100B9000D21A9144C91A009B38004B441B051B0D07
:100BA000CB1A19009B4600F0B1F9431C00D135E186
:100BB0004B46C01A01235844184353461B685B44F4
:100BC0001900534619604B46B3605860B44213D0C5
:100BD00043460F2B00D8E1E04346072260680C3BF8
:100BE0009343063A024005201A436260E2185060BF
:100BF00090600F2B00D915E1304B1A68914200D953
:100C000019602F4B1A68914200D919600323B46808
:100C100062689A431300521B9D4200D9C1E00F2A1B
:100C200000DCBEE00123290065191943134361600C
:100C30003800B5606B6000F067F9200008304AE7C3
:100C4000142B74D9542B00D9B0E0290B6E238CE6F9
:100C50004A0A042A74D9142A00D9C2E010005C326E
:100C60005B305200082149428C469200B2189444ED
:100C7000624692680B318846944500D1A0E0414617
:100C800050688843834202D292689445F7D1D36872
:100C90009C4673686146A260E1608C60D460B1E6F6
:100CA0002C040020FF0100003808002070080020FC
:100CB0000F10000074080020081000006C080020CD
:100CC00068080020012163190D43014365607361C9
:100CD0003361DA609A6059601850380000F014F9F6
:100CE00020000830F7E673688CE608239B46073B34
:100CF000DC449B46DA4443465246134200D09FE60A
:100D000033E0DC688A1C0092A34200D155E6D0E6AD
:100D10000122E318596838000A435A60E368A26860
:100D2000D3609A6000F0F0F820000830D3E65B2230
:100D300094460132904698449C44434659001BE631
:100D40008A0910003932383052008BE7B44200D0A3
:100D50005CE7FDE6009B013B009308235B429C4659
:100D6000E1444B469B6899457AD14346009A134229
:100D7000F0D17368834373604000984200D9BEE6A7
:100D8000002800D1BBE6034270D152460092009A7F
:100D90004000043200920342F9D04BE601234A4658
:100DA0005360380000F0B0F8002094E6AA22520008
:100DB00093420DD8E90B7723D7E580214901EAE674
:100DC000012380108340726813437360624661E7B9
:100DD000284A934218D8A90C7C23C6E51033009307
:100DE000AAE6542A26D80A0B10006F326E30520041
:100DF00038E71B0500D0B8E6009BB26843441800F2
:100E0000012303435360F7E67F239846013BFE210D
:100E10009C46B1E55B464A461A60B1E600230120D4
:100E20009B46CAE621003800083100F07DF95346A0
:100E30001968E1E6AA204000824205D8CA0B1000DA
:100E40007832773052000DE70A48824205D88A0C82
:100E500010007D327C30520004E7FE227E2001E744
:100E6000736889E7E9084B1C5B0019E65346009359
:100E7000E0E5C0465405000070B583073FD0541E1E
:100E8000002A3BD0CEB20300032503E0621E002CF3
:100E900034D0140001335A1E16702B42F6D1032CA5
:100EA00024D9FF250D402A0215432A0415430F2C8F
:100EB00011D92600103E3609013636011A009B1959
:100EC000156055609560D56010329342F8D10F22BD
:100ED0001440032C0AD9261FB6080136B6001A00A2
:100EE0009B1920C29342FCD103221440002C05D050
:100EF000C9B21C19197001339C42FBD170BD14009A
:100F00000300CCE77047C0467047C046002370B569
:100F1000064C05000800236000F052FA431C00D084
:100F200070BD2368002BFBD02B60F9E7A0080020E0
:100F3000034B10B5002B02D0024800F083F810BD1F
:100F40000000000055100000F0B55F4656464D46C3
:100F50004446F0B40F00394B85B01B6801900293F2
:100F60004933FF330393A422029B52009E58002E64
:100F70004ED0039B9946C4235B00984604339A469F
:100F80007468B044A5007519B244013C08D52DE041
:100F90006B1DFF331B689F4204D0043D013C25D3E9
:100FA000002FF5D173686A68013BA34239D0002352
:100FB0006B60002AF1D0736841469B460123A34031
:100FC000096819422BD05146096819422BD12B00D0
:100FD000843319680198904773685B45C3D14B46C9
:100FE0001B68B342BFD1043D013CD9D2144B002B46
:100FF0000ED07368002B1BD13368002B1CD04A46DF
:1010000030001360FFF784FC4B461E68002EB2D1FF
:1010100005B03CBC90469946A246AB46F0BD904711
:10102000DAE77460C5E72B00843318689047D3E78C
:101030003368B1461E00E9E70023FAE770140000A8
:101040001109000010B5010000230022002000F06B
:101050004DF910BD70B5094B094CE41AA41009D024
:10106000084AA518AD00ED182B68013C9847043DCF
:10107000002CF9D100F0BAF970BDC0464408002038
:1010800048080020FFFFFF3FF8B50C000600FFF7FF
:1010900039FF204FBB685D6803239D431E4B2C1B0B
:1010A0009C466444240B1D4B013C24039C4207DDF9
:1010B00000213000FFF72AFFBB685B19984204D07B
:1010C0003000FFF721FF0020F8BD61423000FFF73C
:1010D0001DFF431C0DD001232D1BBA681D43104B6F
:1010E00055601A683000141B1C60FFF70DFF0120CB
:1010F000EAE700213000FFF709FFBB68C21A0F2A98
:10110000DEDD08490968401A0549086001210A43E3
:101110005A60D5E72C040020EF0F0000FF0F0000FD
:101120007408002038080020F0B54746050080B458
:101130000C1E3ED0FFF7E6FE012321009846083939
:101140004E684246330003209343CC1862688243C2
:1011500060488768BC425AD04746626037420BD12C
:101160000827BC460E688444891B9B198E68664517
:1011700066D0CF68F760BE600126A7187F68374247
:1011800036D0554A1E434E60CB50934214D8DB08EC
:10119000FF3A9C10FF3AA2404468DB0022434260C1
:1011A00018188368C8608B608160D9602800FFF7D9
:1011B000ABFE04BC9046F0BD5A0A042A4FD89C09E5
:1011C0002600393438366400A4000419083CA268AB
:1011D000032794424AD05068B843834202D29268AF
:1011E0009442F8D1D468CC608A60A160D160DDE718
:1011F0009B183A4FA268BA4240D0E4681E43D460BC
:10120000A260354A4E60CB509342D5D8BFE79B18B9
:101210004246324206D10A68891A8C689B18CA680D
:10122000E260946001242E4A1C4312684C60816085
:101230009342BBD32B4B28001968FFF725FFB5E776
:101240004646A018406830423ED1A068D318E268F4
:10125000C260906042461A434A60CB50A6E7142A07
:1012600014D816005C325B365400ADE70123B6108B
:10127000B3404268134343602200B4E71E43D16089
:101280009160CA608A604E60CB508FE7542A05D8BF
:101290001C0B26006F346E36640095E7AA246400A8
:1012A000A24205D8DC0B26007834773664008BE741
:1012B0000D4CA24205D89C0C26007D347C3664007F
:1012C00082E7FE247E267FE742461A434A60CB50DF
:1012D0006CE7C0462C040020FF010000340400200D
:1012E000340800207008002054050000F8B544467A
:1012F0005F4656464D469B462F4BF0B41C68A423D0
:101300005B000500E0580E00904600284BD0436873
:101310001F2B0DDC5C1C002D21D102339B0044608F
:101320001E5000203CBC90469946A246AB46F8BDF4
:10133000224B002B3CD0C8204000FFF7DFFA0028EA
:1013400036D0A42200235200A15843600160A0506F
:1013500040328350043283500124002DDDD09A00A6
:1013600091468144424688214F467A50C422520019
:101370009046804442468739994012688A460A431B
:101380009446424661461160842249465F465200B7
:101390008F50022DC1D1020055468D32FF321168A7
:1013A0000D431560B9E720004D30FF30E050AEE747
:1013B00001204042B6E7C04670140000FD0800005E
:1013C000044A1368002B03D01818106018007047E7
:1013D000014BF9E79C080020A8080020FEE7C04662
:1013E000F8B5C046F8BC08BC9E467047F8B5C04684
:1013F000F8BC08BC9E467047FC0400004405000091
:101400008C050000D2050000180600001005000041
:101410001A050000240500002E0500003805000014
:1014200058050000620500006C050000760500000C
:10143000800500009E050000A8050000B205000020
:10144000BC050000C6050000E4050000EE05000034
:10145000F8050000020600000C0600002A06000045
:10146000340600003E060000480600005206000058
:08147000000000200000000054
:08147800A8ECFF7F0100000059
:1014800000000000EC02002054030020BC030020F8
:10149000000000000000000000000000000000004C
:1014A000000000000000000000000000000000003C
:1014B000000000000000000000000000000000002C
:1014C000000000000000000000000000000000001C
:1014D000000000000000000000000000000000000C
:1014E00000000000000000000000000000000000FC
:1014F00000000000000000000000000000000000EC
:1015000000000000000000000000000000000000DB
:1015100000000000000000000000000000000000CB
:1015200000000000000000000100000000000000BA
:101530000E33CDAB34126DE6ECDE05000B0000007F
:10154000000000000000000000000000000000009B
:10155000000000000000000000000000000000008B
:10156000000000000000000000000000000000007B
:10157000000000000000000000000000000000006B
:1018A0000000000000000000000000200000000018
:1018B000000000002C0400202C0400203404002030
:1018C000340400203C0400203C0400204404002098
:1018D000440400204C0400204C0400205404002048
:1018E000540400205C0400205C04002064040020F8
:1018F000640400206C0400206C04002074040020A8
:10190000740400207C0400207C0400208404002057
:10191000840400208C0400208C0400209404002007
:10192000940400209C0400209C040020A4040020B7
:10193000A4040020AC040020AC040020B404002067
:10194000B4040020BC040020BC040020C404002017
:10195000C4040020CC040020CC040020D4040020C7
:10196000D4040020DC040020DC040020E404002077
:10197000E4040020EC040020EC040020F404002027
:10198000F4040020FC040020FC04002004050020D6
:10199000040500200C0500200C0500201405002083
:1019A000140500201C0500201C0500202405002033
:1019B000240500202C0500202C05002034050020E3
:1019C000340500203C0500203C0500204405002093
:1019D000440500204C0500204C0500205405002043
:1019E000540500205C0500205C05002064050020F3
:1019F000640500206C0500206C05002074050020A3
:101A0000740500207C0500207C0500208405002052
:101A1000840500208C0500208C0500209405002002
:101A2000940500209C0500209C050020A4050020B2
:101A3000A4050020AC050020AC050020B405002062
:101A4000B4050020BC050020BC050020C405002012
:101A5000C4050020CC050020CC050020D4050020C2
:101A6000D4050020DC050020DC050020E405002072
:101A7000E4050020EC050020EC050020F405002022
:101A8000F4050020FC050020FC05002004060020D1
:101A9000040600200C0600200C060020140600207E
:101AA000140600201C0600201C060020240600202E
:101AB000240600202C0600202C06002034060020DE
:101AC000340600203C0600203C060020440600208E
:101AD000440600204C0600204C060020540600203E
:101AE000540600205C0600205C06002064060020EE
:101AF000640600206C0600206C060020740600209E
:101B0000740600207C0600207C060020840600204D
:101B1000840600208C0600208C06002094060020FD
:101B2000940600209C0600209C060020A4060020AD
:101B3000A4060020AC060020AC060020B40600205D
:101B4000B4060020BC060020BC060020C40600200D
:101B5000C4060020CC060020CC060020D4060020BD
:101B6000D4060020DC060020DC060020E40600206D
:101B7000E4060020EC060020EC060020F40600201D
:101B8000F4060020FC060020FC06002004070020CC
:101B9000040700200C0700200C0700201407002079
:101BA000140700201C0700201C0700202407002029
:101BB000240700202C0700202C07002034070020D9
:101BC000340700203C0700203C0700204407002089
:101BD000440700204C0700204C0700205407002039
:101BE000540700205C0700205C07002064070020E9
:101BF000640700206C0700206C0700207407002099
:101C0000740700207C0700207C0700208407002048
:101C1000840700208C0700208C07002094070020F8
:101C2000940700209C0700209C070020A4070020A8
:101C3000A4070020AC070020AC070020B407002058
:101C4000B4070020BC070020BC070020C407002008
:101C5000C4070020CC070020CC070020D4070020B8
:101C6000D4070020DC070020DC070020E407002068
:101C7000E4070020EC070020EC070020F407002018
:101C8000F4070020FC070020FC07002004080020C7
:101C9000040800200C0800200C0800201408002074
:101CA000140800201C0800201C0800202408002024
:101CB0002408002000000200FFFFFFFF310F00009A
:0C1CC000E9000000C1000000000000006E
:0400000300000849A8
:00000001FF
